{
  "contractName": "UberCrowdsale",
  "abi": [
    {
      "constant": true,
      "inputs": [],
      "name": "soldCrowdsaleToken",
      "outputs": [
        {
          "name": "",
          "type": "uint256"
        }
      ],
      "payable": false,
      "stateMutability": "view",
      "type": "function"
    },
    {
      "constant": true,
      "inputs": [],
      "name": "startCrowdsaleDate",
      "outputs": [
        {
          "name": "",
          "type": "uint256"
        }
      ],
      "payable": false,
      "stateMutability": "view",
      "type": "function"
    },
    {
      "constant": true,
      "inputs": [],
      "name": "operatorAddress",
      "outputs": [
        {
          "name": "",
          "type": "address"
        }
      ],
      "payable": false,
      "stateMutability": "view",
      "type": "function"
    },
    {
      "constant": false,
      "inputs": [
        {
          "name": "_newMinInvestment",
          "type": "uint256"
        }
      ],
      "name": "changeMinInvestment",
      "outputs": [],
      "payable": false,
      "stateMutability": "nonpayable",
      "type": "function"
    },
    {
      "constant": true,
      "inputs": [],
      "name": "getState",
      "outputs": [
        {
          "name": "",
          "type": "uint8"
        }
      ],
      "payable": false,
      "stateMutability": "view",
      "type": "function"
    },
    {
      "constant": true,
      "inputs": [
        {
          "name": "_tokenAddress",
          "type": "address"
        }
      ],
      "name": "MIN_CROWDSALE",
      "outputs": [
        {
          "name": "",
          "type": "uint256"
        }
      ],
      "payable": false,
      "stateMutability": "view",
      "type": "function"
    },
    {
      "constant": false,
      "inputs": [
        {
          "name": "_tokenAddress",
          "type": "address"
        }
      ],
      "name": "setTokenAddress",
      "outputs": [
        {
          "name": "",
          "type": "bool"
        }
      ],
      "payable": false,
      "stateMutability": "nonpayable",
      "type": "function"
    },
    {
      "constant": true,
      "inputs": [
        {
          "name": "_decide",
          "type": "bool"
        },
        {
          "name": "_newCrowdsale",
          "type": "address"
        }
      ],
      "name": "tokenRate",
      "outputs": [
        {
          "name": "",
          "type": "uint32"
        }
      ],
      "payable": false,
      "stateMutability": "view",
      "type": "function"
    },
    {
      "constant": false,
      "inputs": [
        {
          "name": "_decide",
          "type": "bool"
        },
        {
          "name": "_newCrowdsale",
          "type": "address"
        }
      ],
      "name": "endCrowdfund",
      "outputs": [
        {
          "name": "",
          "type": "bool"
        }
      ],
      "payable": false,
      "stateMutability": "nonpayable",
      "type": "function"
    },
    {
      "constant": true,
      "inputs": [],
      "name": "endPresaleDate",
      "outputs": [
        {
          "name": "",
          "type": "uint256"
        }
      ],
      "payable": false,
      "stateMutability": "view",
      "type": "function"
    },
    {
      "constant": false,
      "inputs": [],
      "name": "activeCrowdsale",
      "outputs": [
        {
          "name": "",
          "type": "uint16"
        }
      ],
      "payable": false,
      "stateMutability": "nonpayable",
      "type": "function"
    },
    {
      "constant": true,
      "inputs": [],
      "name": "getBonus",
      "outputs": [
        {
          "name": "",
          "type": "uint16"
        }
      ],
      "payable": false,
      "stateMutability": "view",
      "type": "function"
    },
    {
      "constant": true,
      "inputs": [],
      "name": "tokenAddress",
      "outputs": [
        {
          "name": "",
          "type": "address"
        }
      ],
      "payable": false,
      "stateMutability": "view",
      "type": "function"
    },
    {
      "constant": true,
      "inputs": [],
      "name": "isTokenSet",
      "outputs": [
        {
          "name": "",
          "type": "bool"
        }
      ],
      "payable": false,
      "stateMutability": "view",
      "type": "function"
    },
    {
      "constant": false,
      "inputs": [],
      "name": "endPresale",
      "outputs": [
        {
          "name": "",
          "type": "uint256"
        }
      ],
      "payable": false,
      "stateMutability": "nonpayable",
      "type": "function"
    },
    {
      "constant": true,
      "inputs": [],
      "name": "endCrowdsaleDate",
      "outputs": [
        {
          "name": "",
          "type": "uint256"
        }
      ],
      "payable": false,
      "stateMutability": "view",
      "type": "function"
    },
    {
      "constant": true,
      "inputs": [
        {
          "name": "_investedAmount",
          "type": "uint256"
        }
      ],
      "name": "getTokenAmount",
      "outputs": [
        {
          "name": "",
          "type": "uint256"
        }
      ],
      "payable": false,
      "stateMutability": "view",
      "type": "function"
    },
    {
      "constant": true,
      "inputs": [],
      "name": "MAX_INVESTMENT_GOAL",
      "outputs": [
        {
          "name": "",
          "type": "uint256"
        }
      ],
      "payable": false,
      "stateMutability": "view",
      "type": "function"
    },
    {
      "constant": true,
      "inputs": [],
      "name": "beneficiaryAddress",
      "outputs": [
        {
          "name": "",
          "type": "address"
        }
      ],
      "payable": false,
      "stateMutability": "view",
      "type": "function"
    },
    {
      "constant": true,
      "inputs": [
        {
          "name": "_investorAddress",
          "type": "address"
        }
      ],
      "name": "soldPresaleToken",
      "outputs": [
        {
          "name": "",
          "type": "uint256"
        }
      ],
      "payable": false,
      "stateMutability": "view",
      "type": "function"
    },
    {
      "constant": true,
      "inputs": [],
      "name": "startPresaleDate",
      "outputs": [
        {
          "name": "",
          "type": "uint256"
        }
      ],
      "payable": false,
      "stateMutability": "view",
      "type": "function"
    },
    {
      "constant": false,
      "inputs": [
        {
          "name": "_investorAddress",
          "type": "address"
        }
      ],
      "name": "buyTokens",
      "outputs": [
        {
          "name": "",
          "type": "bool"
        }
      ],
      "payable": true,
      "stateMutability": "payable",
      "type": "function"
    },
    {
      "constant": true,
      "inputs": [],
      "name": "MIN_PRESALE",
      "outputs": [
        {
          "name": "",
          "type": "uint256"
        }
      ],
      "payable": false,
      "stateMutability": "view",
      "type": "function"
    },
    {
      "constant": true,
      "inputs": [],
      "name": "crowdsaleAllotment",
      "outputs": [
        {
          "name": "",
          "type": "uint256"
        }
      ],
      "payable": false,
      "stateMutability": "view",
      "type": "function"
    },
    {
      "inputs": [
        {
          "name": "_operatorAddress",
          "type": "address"
        },
        {
          "name": "_beneficiaryAddress",
          "type": "address"
        }
      ],
      "payable": false,
      "stateMutability": "view",
      "type": "function",
      "constant": true,
      "name": "presaleAllotment",
      "outputs": [
        {
          "name": "",
          "type": "uint256"
        }
      ]
    },
    {
      "payable": false,
      "stateMutability": "view",
      "type": "function",
      "constant": true,
      "inputs": [],
      "name": "ethRaised",
      "outputs": [
        {
          "name": "",
          "type": "uint256"
        }
      ]
    },
    {
      "anonymous": false,
      "inputs": [
        {
          "indexed": true,
          "name": "_operatorAddress",
          "type": "address"
        },
        {
          "indexed": false,
          "name": "_beneficiaryAddress",
          "type": "address"
        }
      ],
      "name": "TokenBought",
      "type": "constructor",
      "payable": false,
      "stateMutability": "nonpayable"
    },
    {
      "anonymous": false,
      "inputs": [
        {
          "indexed": false,
          "name": "_amount",
          "type": "uint256"
        },
        {
          "indexed": false,
          "name": "_timestamp",
          "type": "uint256"
        }
      ],
      "name": "BurnToken",
      "type": "fallback",
      "payable": true,
      "stateMutability": "payable"
    },
    {
      "anonymous": false,
      "inputs": [
        {
          "indexed": true,
          "name": "_investor",
          "type": "address"
        },
        {
          "indexed": false,
          "name": "_token",
          "type": "uint256"
        }
      ],
      "name": "TokenBought",
      "type": "event"
    },
    {
      "anonymous": false,
      "inputs": [
        {
          "indexed": false,
          "name": "_amount",
          "type": "uint256"
        },
        {
          "indexed": false,
          "name": "_timestamp",
          "type": "uint256"
        }
      ],
      "name": "BurnToken",
      "type": "event"
    },
    {
      "anonymous": false,
      "inputs": [
        {
          "indexed": true,
          "name": "_newCrowdsale",
          "type": "address"
        },
        {
          "indexed": false,
          "name": "_timestamp",
          "type": "uint256"
        }
      ],
      "name": "RemainingTokenTransfered",
      "type": "event"
    }
  ],
  "bytecode": "0x60606040526103e8600060146101000a81548163ffffffff021916908363ffffffff160217905550670de0b6b3a764000060015567016345785d8a000060025569152d02c7e14af68000006003556a05955e3bb3e743fec0000060055563066ff300600655600060075560006008556000600d60006101000a81548160ff0219169083151502179055506000600d60016101000a81548160ff0219169083151502179055506000600d60026101000a81548160ff0219169083151502179055506000600d60036101000a81548160ff02191690831515021790555034156100e557600080fd5b6040516040806117ba8339810160405280805190602001909190805190602001909190505081600d60046101000a81548173ffffffffffffffffffffffffffffffffffffffff021916908373ffffffffffffffffffffffffffffffffffffffff16021790555080600e60006101000a81548173ffffffffffffffffffffffffffffffffffffffff021916908373ffffffffffffffffffffffffffffffffffffffff160217905550426009819055506224ea004201600a81905550600d60009054906101000a900460ff1615600d60006101000a81548160ff02191690831515021790555050506115e0806101da6000396000f300606060405260043610610154576000357c0100000000000000000000000000000000000000000000000000000000900463ffffffff16806305384f0a1461016057806311eada1514610189578063127effb2146101b257806313f56f73146102075780631865c57d1461022a5780631d313d5c1461026157806326a4e8d21461028a57806331711884146102db57806334fd71db14610310578063547173da1461036c578063861bf2d7146103955780638bdff161146103aa5780639d76ea58146103db5780639ee7138c14610430578063a43be57b1461045d578063b2d0a33814610472578063c2507ac11461049b578063d02f5bad146104d2578063d9c4870e146104fb578063dd2da93a14610550578063e08a5f9e14610579578063ec8ac4d8146105a2578063ecf0848f146105e8578063f042df7d14610611578063f1e500571461063a578063fddf0fc014610663575b61015d3361068c565b50005b341561016b57600080fd5b610173610840565b6040518082815260200191505060405180910390f35b341561019457600080fd5b61019c610846565b6040518082815260200191505060405180910390f35b34156101bd57600080fd5b6101c561084c565b604051808273ffffffffffffffffffffffffffffffffffffffff1673ffffffffffffffffffffffffffffffffffffffff16815260200191505060405180910390f35b341561021257600080fd5b6102286004808035906020019091905050610872565b005b341561023557600080fd5b61023d61092d565b6040518082600381111561024d57fe5b60ff16815260200191505060405180910390f35b341561026c57600080fd5b6102746109e2565b6040518082815260200191505060405180910390f35b341561029557600080fd5b6102c1600480803573ffffffffffffffffffffffffffffffffffffffff169060200190919050506109e8565b604051808215151515815260200191505060405180910390f35b34156102e657600080fd5b6102ee610b58565b604051808263ffffffff1663ffffffff16815260200191505060405180910390f35b341561031b57600080fd5b6103526004808035151590602001909190803573ffffffffffffffffffffffffffffffffffffffff16906020019091905050610b6e565b604051808215151515815260200191505060405180910390f35b341561037757600080fd5b61037f610f69565b6040518082815260200191505060405180910390f35b34156103a057600080fd5b6103a8610f6f565b005b34156103b557600080fd5b6103bd61102c565b604051808261ffff1661ffff16815260200191505060405180910390f35b34156103e657600080fd5b6103ee611156565b604051808273ffffffffffffffffffffffffffffffffffffffff1673ffffffffffffffffffffffffffffffffffffffff16815260200191505060405180910390f35b341561043b57600080fd5b61044361117c565b604051808215151515815260200191505060405180910390f35b341561046857600080fd5b61047061118f565b005b341561047d57600080fd5b610485611285565b6040518082815260200191505060405180910390f35b34156104a657600080fd5b6104bc600480803590602001909190505061128b565b6040518082815260200191505060405180910390f35b34156104dd57600080fd5b6104e5611324565b6040518082815260200191505060405180910390f35b341561050657600080fd5b61050e61132a565b604051808273ffffffffffffffffffffffffffffffffffffffff1673ffffffffffffffffffffffffffffffffffffffff16815260200191505060405180910390f35b341561055b57600080fd5b610563611350565b6040518082815260200191505060405180910390f35b341561058457600080fd5b61058c611356565b6040518082815260200191505060405180910390f35b6105ce600480803573ffffffffffffffffffffffffffffffffffffffff1690602001909190505061068c565b604051808215151515815260200191505060405180910390f35b34156105f357600080fd5b6105fb61135c565b6040518082815260200191505060405180910390f35b341561061c57600080fd5b610624611362565b6040518082815260200191505060405180910390f35b341561064557600080fd5b61064d611368565b6040518082815260200191505060405180910390f35b341561066e57600080fd5b61067661136e565b6040518082815260200191505060405180910390f35b60008060011515600d60039054906101000a900460ff1615151415156106b157600080fd5b3460045401600354111515156106c657600080fd5b600060038111156106d357fe5b6106db61092d565b60038111156106e657fe5b141561076a5760015434101515156106fd57600080fd5b6107063461128b565b905080600754016005541115151561071d57600080fd5b61072634611374565b151561073157600080fd5b61073b83826113e1565b151561074657600080fd5b61075b8160075461154890919063ffffffff16565b6007819055506001915061083a565b6002600381111561077757fe5b61077f61092d565b600381111561078a57fe5b141561080e5760025434101515156107a157600080fd5b6107aa3461128b565b90508060085401600654111515156107c157600080fd5b6107ca34611374565b15156107d557600080fd5b6107df83826113e1565b15156107ea57600080fd5b6107ff8160085461154890919063ffffffff16565b6008819055506001915061083a565b6001600381111561081b57fe5b61082361092d565b600381111561082e57fe5b141561083957600080fd5b5b50919050565b60085481565b600b5481565b600d60049054906101000a900473ffffffffffffffffffffffffffffffffffffffff1681565b3373ffffffffffffffffffffffffffffffffffffffff16600d60049054906101000a900473ffffffffffffffffffffffffffffffffffffffff1673ffffffffffffffffffffffffffffffffffffffff161415156108ce57600080fd5b600060038111156108db57fe5b6108e361092d565b60038111156108ee57fe5b14156108fc57806001819055505b6002600381111561090957fe5b61091161092d565b600381111561091c57fe5b141561092a57806002819055505b50565b600060011515600d60009054906101000a900460ff1615151415610972576009544211801561095e5750600a544211155b151561096957600080fd5b600090506109df565b60011515600d60019054906101000a900460ff16151514156109b557600b54421180156109a15750600c544211155b15156109ac57600080fd5b600290506109df565b60011515600d60029054906101000a900460ff16151514156109da57600190506109df565b600390505b90565b60025481565b60003373ffffffffffffffffffffffffffffffffffffffff16600d60049054906101000a900473ffffffffffffffffffffffffffffffffffffffff1673ffffffffffffffffffffffffffffffffffffffff16141515610a4657600080fd5b600073ffffffffffffffffffffffffffffffffffffffff168273ffffffffffffffffffffffffffffffffffffffff1614151515610a8257600080fd5b60001515600d60039054906101000a900460ff161515141515610aa457600080fd5b816000806101000a81548173ffffffffffffffffffffffffffffffffffffffff021916908373ffffffffffffffffffffffffffffffffffffffff16021790555081600f60006101000a81548173ffffffffffffffffffffffffffffffffffffffff021916908373ffffffffffffffffffffffffffffffffffffffff160217905550600d60039054906101000a900460ff1615600d60036101000a81548160ff02191690831515021790555060019050919050565b600060149054906101000a900463ffffffff1681565b6000803373ffffffffffffffffffffffffffffffffffffffff16600d60049054906101000a900473ffffffffffffffffffffffffffffffffffffffff1673ffffffffffffffffffffffffffffffffffffffff16141515610bcd57600080fd5b600c5442111515610bdd57600080fd5b60011515600d60039054906101000a900460ff161515141515610bff57600080fd5b6000809054906101000a900473ffffffffffffffffffffffffffffffffffffffff1673ffffffffffffffffffffffffffffffffffffffff166370a08231306000604051602001526040518263ffffffff167c0100000000000000000000000000000000000000000000000000000000028152600401808273ffffffffffffffffffffffffffffffffffffffff1673ffffffffffffffffffffffffffffffffffffffff168152602001915050602060405180830381600087803b1515610cc357600080fd5b6102c65a03f11515610cd457600080fd5b5050506040518051905090508315610de1576000809054906101000a900473ffffffffffffffffffffffffffffffffffffffff1673ffffffffffffffffffffffffffffffffffffffff166344df8e706000604051602001526040518163ffffffff167c0100000000000000000000000000000000000000000000000000000000028152600401602060405180830381600087803b1515610d7357600080fd5b6102c65a03f11515610d8457600080fd5b505050604051805190501515610d9957600080fd5b7fcbe8e207351205a2b38ef9d0e9b765d07ea6ff98b21fbdf1580847f4115dda508142604051808381526020018281526020019250505060405180910390a160019150610f62565b600073ffffffffffffffffffffffffffffffffffffffff168373ffffffffffffffffffffffffffffffffffffffff1614151515610e1d57600080fd5b6000809054906101000a900473ffffffffffffffffffffffffffffffffffffffff1673ffffffffffffffffffffffffffffffffffffffff1663a9059cbb84836000604051602001526040518363ffffffff167c0100000000000000000000000000000000000000000000000000000000028152600401808373ffffffffffffffffffffffffffffffffffffffff1673ffffffffffffffffffffffffffffffffffffffff16815260200182815260200192505050602060405180830381600087803b1515610ee957600080fd5b6102c65a03f11515610efa57600080fd5b505050604051805190501515610f0f57600080fd5b8273ffffffffffffffffffffffffffffffffffffffff167ff997c454f1df47f2cf9110bfca5fee8496b35f6e174ac93c1720c284f3140ce8426040518082815260200191505060405180910390a2600191505b5092915050565b600a5481565b3373ffffffffffffffffffffffffffffffffffffffff16600d60049054906101000a900473ffffffffffffffffffffffffffffffffffffffff1673ffffffffffffffffffffffffffffffffffffffff16141515610fcb57600080fd5b60011515600d60029054906101000a900460ff161515141515610fed57600080fd5b42600b819055506224ea004201600c81905550600d60019054906101000a900460ff1615600d60016101000a81548160ff021916908315150217905550565b600080600381111561103a57fe5b61104261092d565b600381111561104d57fe5b14156110a657600954421015801561106c575062093a80600954014211155b1561107a5760329050611153565b62093a8060095401421180156110975750621baf80600954014211155b156110a55760289050611153565b5b600260038111156110b357fe5b6110bb61092d565b60038111156110c657fe5b141561115257600b5442101580156110e5575062093a80600b54014211155b156110f35760149050611153565b62093a80600b540142118015611110575062127500600b54014211155b1561111e57600a9050611153565b62127500600b54014211801561113b5750621baf80600b54014211155b156111495760059050611153565b60009050611153565b5b90565b600f60009054906101000a900473ffffffffffffffffffffffffffffffffffffffff1681565b600d60039054906101000a900460ff1681565b3373ffffffffffffffffffffffffffffffffffffffff16600d60049054906101000a900473ffffffffffffffffffffffffffffffffffffffff1673ffffffffffffffffffffffffffffffffffffffff161415156111eb57600080fd5b60011515600d60009054906101000a900460ff16151514151561120d57600080fd5b60001515600d60029054906101000a900460ff16151514151561122f57600080fd5b600d60009054906101000a900460ff1615600d60006101000a81548160ff021916908315150217905550600d60029054906101000a900460ff1615600d60026101000a81548160ff021916908315150217905550565b600c5481565b60008060008061129961102c565b61ffff1692506112ca85600060149054906101000a900463ffffffff1663ffffffff1661156690919063ffffffff16565b915061131760646113096112e7868661156690919063ffffffff16565b6112fb60648761156690919063ffffffff16565b61154890919063ffffffff16565b61159990919063ffffffff16565b9050809350505050919050565b60035481565b600e60009054906101000a900473ffffffffffffffffffffffffffffffffffffffff1681565b60075481565b60095481565b60015481565b60065481565b60055481565b60045481565b6000600e60009054906101000a900473ffffffffffffffffffffffffffffffffffffffff1673ffffffffffffffffffffffffffffffffffffffff166108fc839081150290604051600060405180830381858888f1935050505015156113d857600080fd5b60019050919050565b60008060009054906101000a900473ffffffffffffffffffffffffffffffffffffffff1673ffffffffffffffffffffffffffffffffffffffff1663a9059cbb84846000604051602001526040518363ffffffff167c0100000000000000000000000000000000000000000000000000000000028152600401808373ffffffffffffffffffffffffffffffffffffffff1673ffffffffffffffffffffffffffffffffffffffff16815260200182815260200192505050602060405180830381600087803b15156114af57600080fd5b6102c65a03f115156114c057600080fd5b5050506040518051905015156114d557600080fd5b6114ea3460045461154890919063ffffffff16565b6004819055508273ffffffffffffffffffffffffffffffffffffffff167fa3a187cfc249a33f6c4046e8d418886eea8564f9dd214a32aa5ba08d9602b543836040518082815260200191505060405180910390a26001905092915050565b600080828401905083811015151561155c57fe5b8091505092915050565b60008082840290506000841480611587575082848281151561158457fe5b04145b151561158f57fe5b8091505092915050565b60008082848115156115a757fe5b04905080915050929150505600a165627a7a72305820d1a0b4c7579f2a194053dbd96ffb4ea85a2e6a278f122f535a273f155889f0490029",
  "source": "pragma solidity ^0.4.18;\n\nimport './lib/safeMath.sol';\nimport './UberToken.sol';\n\ncontract UberCrowdsale {\n\n    using SafeMath for uint256;\n\n    UberToken token;\n    uint32 public tokenRate = 1000;\n    uint256 public MIN_PRESALE = 1 ether;\n    uint256 public MIN_CROWDSALE = 100 finney;\n    uint256 public MAX_INVESTMENT_GOAL = 100000 ether;\n    uint256 public ethRaised;\n    uint256 public presaleAllotment = 6750000 * 10 ** 18;\n    uint256 public crowdsaleAllotment = 108000000;\n    uint256 public soldPresaleToken = 0;\n    uint256 public soldCrowdsaleToken = 0;\n\n    uint256 public startPresaleDate;\n    uint256 public endPresaleDate;\n    uint256 public startCrowdsaleDate;\n    uint256 public endCrowdsaleDate;\n\n    bool private isPresaleActive = false;\n    bool private isCrowdsaleActive = false;\n    bool private isGapActive = false;\n    bool public isTokenSet = false;\n\n    address public operatorAddress;\n    address public beneficiaryAddress;\n    address public tokenAddress;\n\n    event TokenBought(address indexed _investor, uint256 _token);\n    event BurnToken(uint256 _amount, uint256 _timestamp);\n    event RemainingTokenTransfered(address indexed _newCrowdsale, uint256 _timestamp);\n\n    enum State { Presale, Gap, Crowdsale, Finish } \n\n\n    modifier onlyOperator() {\n        require(operatorAddress == msg.sender);\n        _;\n    }\n\n    function fundTransfer(uint256 _fund) internal returns(bool) {\n        beneficiaryAddress.transfer(_fund);\n        return true;\n    }\n\n    function () payable public {\n        buyTokens(msg.sender);\n    }\n\n    function UberCrowdsale(address _operatorAddress, address _beneficiaryAddress) public {\n        operatorAddress = _operatorAddress;\n        beneficiaryAddress = _beneficiaryAddress;\n        startPresaleDate = now;\n        endPresaleDate = now + 4 weeks;\n        isPresaleActive = !isPresaleActive;\n    } \n\n    function activeCrowdsale() onlyOperator public {\n        require(isGapActive == true);\n        startCrowdsaleDate = now;\n        endCrowdsaleDate = now + 4 weeks;\n        isCrowdsaleActive = !isCrowdsaleActive;\n    }\n\n    function endPresale() onlyOperator public {\n        require(isPresaleActive == true);\n        require(isGapActive == false);\n        isPresaleActive = !isPresaleActive;\n        isGapActive = !isGapActive;\n    }\n\n    function changeMinInvestment(uint256 _newMinInvestment) onlyOperator public {\n       if (getState() == State.Presale) {\n           MIN_PRESALE = _newMinInvestment;\n       }\n       if (getState() == State.Crowdsale) {\n           MIN_CROWDSALE = _newMinInvestment;\n       }\n        \n    }\n\n    function getState() view public returns(State) {\n        if (isPresaleActive == true) {\n            require(now > startPresaleDate && now <= endPresaleDate);\n            return State.Presale;\n        }\n        if (isCrowdsaleActive == true) {\n            require(now > startCrowdsaleDate && now <= endCrowdsaleDate);\n            return State.Crowdsale;\n        }\n        if (isGapActive == true) {\n            return State.Gap;\n        }\n        return State.Finish;\n    }\n\n    function getBonus() view public returns(uint16) {\n        if (getState() == State.Presale) {\n            if (now >= startPresaleDate && now <= startPresaleDate + 1 weeks) {\n                return 50;\n            }\n            if (now > startPresaleDate + 1 weeks && now <= startPresaleDate + 3 weeks) {\n                return 40;\n            }\n        }\n        if (getState() == State.Crowdsale) {\n            if (now >= startCrowdsaleDate && now <= startCrowdsaleDate + 1 weeks) {\n                return 20;\n            }\n            if (now > startCrowdsaleDate + 1 weeks && now <= startCrowdsaleDate + 2 weeks) {\n                return 10;\n            }\n            if (now > startCrowdsaleDate + 2 weeks && now <= startCrowdsaleDate + 3 weeks) {\n                return 5;\n            } \n            return 0;\n        }\n    }\n\n    function setTokenAddress(address _tokenAddress) onlyOperator public returns (bool) {\n        require(_tokenAddress != address(0));\n        require(isTokenSet == false);\n        token = UberToken(_tokenAddress);\n        tokenAddress = _tokenAddress;\n        isTokenSet = !isTokenSet;\n        return true;\n    }\n\n    function buyTokens(address _investorAddress)\n    public \n    payable\n    returns (bool) \n    {\n        require(isTokenSet == true);\n        require(MAX_INVESTMENT_GOAL <= ethRaised + msg.value);\n        uint256 tokenAmount;\n        if (getState() == State.Presale) {\n            require(msg.value >= MIN_PRESALE);\n            tokenAmount = getTokenAmount(msg.value);\n            require(presaleAllotment <= soldPresaleToken + tokenAmount);\n            require(fundTransfer(msg.value));\n            require(tokenSold(_investorAddress, tokenAmount));\n            soldPresaleToken = soldPresaleToken.add(tokenAmount);\n            return true;\n        }\n        if (getState() == State.Crowdsale) {\n            require(msg.value >= MIN_CROWDSALE);\n            tokenAmount = getTokenAmount(msg.value);\n            require(crowdsaleAllotment <= soldCrowdsaleToken + tokenAmount);\n            require(fundTransfer(msg.value));\n            require(tokenSold(_investorAddress, tokenAmount));\n            soldCrowdsaleToken = soldCrowdsaleToken.add(tokenAmount);\n            return true;\n        }\n        if (getState() == State.Gap) {\n            revert();\n        }  \n    } \n\n    function getTokenAmount(uint256 _investedAmount) view public returns (uint256) {\n        uint256 bonus = uint256(getBonus());\n        uint256 withoutBonusAmount = uint256(tokenRate).mul(_investedAmount);\n        uint256 bonusAmount = ((withoutBonusAmount.mul(100)).add(withoutBonusAmount.mul(bonus))).div(100);\n        return bonusAmount;\n    }\n\n    function tokenSold(address _investorAddress, uint256 amount) private returns (bool) {\n        require(token.transfer(_investorAddress, amount));\n        ethRaised = ethRaised.add(msg.value);\n        TokenBought(_investorAddress, amount);\n        return true;\n    }\n\n    function endCrowdfund(bool _decide, address _newCrowdsale) onlyOperator public returns(bool) {\n        require(now > endCrowdsaleDate);\n        require(isTokenSet == true);\n        uint256 burnAmount = token.balanceOf(this);\n        if (_decide) {\n            require(token.burn());\n            BurnToken(burnAmount, now);\n            return true;\n        } \n        require(_newCrowdsale != address(0));\n        require(token.transfer(_newCrowdsale, burnAmount));\n        RemainingTokenTransfered(_newCrowdsale, now);\n        return true;\n    }\n}",
  "sourcePath": "/home/bakii/Repositories/UBER_Token/contracts/UberCrowdsale.sol",
  "compiler": {
    "name": "solc",
    "version": "0.4.18+commit.9cf6e910.Emscripten.clang"
  },
  "schemaVersion": "1.0.1",
  "updatedAt": "2017-12-31T07:36:11.800Z"
}